:020000040000FA
:060000009AEF08F0120067
:0600080004EF08F01200F5
:060018000CEF08F01200DD
:061000009AEF08F0120057
:021006000000E8
:061008005EEF08F012008B
:02100E001200CE
:0610180067EF08F0120072
:02101E00060EBC
:10102000F66E100EF76E000EF86E00010900F55016
:10103000656F0900F550666F03E1656701D03DD02B
:101040000900F550606F0900F550616F0900F55017
:10105000626F09000900F550E96E0900F550EA6E6B
:10106000090009000900F550636F0900F550646F2D
:1010700009000900F6CF67F0F7CF68F0F8CF69F004
:1010800060C0F6FF61C0F7FF62C0F8FF0001635364
:1010900002E1645307E00900F550EE6E6307F8E2E1
:1010A0006407F9D767C0F6FF68C0F7FF69C0F8FFAB
:0C10B00000016507000E665BBFD7120050
:0410BC00DACFE4FFA4
:1010C000E2CFDAFFE652E552E5CFDAFF1100D8CFE2
:1010D000E4FFE0CFE4FFE46EDACFE4FFE2CFDAFF33
:1010E000E652E552E5CFDAFFE550E5CFE0FFE5CF88
:1010F000D8FF1000939E8A7E780EE66E83EC08F08F
:06110000E552F9D71200D0
:0A110600FF0EE350036EEF0E01D060
:10111000F30EE76EE72E8AEF08F00C0E026EE76A18
:10112000E72E90EF08F0022E8FEF08F0032E88EFE5
:0411300008F01200B1
:0C11340011EE00F021EE00F0F86A019CC2
:101140000FEC08F007EC08F07AEC08F0FBD712007F
:0E11500000EE00F00F0EEE6AEA62FDD712000C
:020000040030CA
:0100000000FF
:0100010032CC
:0100020001FC
:010003001EDE
:0100050000FA
:0100060001F8
:0100080003F4
:01000900C036
:01000A0003F2
:01000B00E014
:01000C0003F0
:01000D0040B2
:00000001FF
