:020000040000FA
:06000000CBEF07F0120037
:0600080004EF08F01200F5
:060018000CEF08F01200DD
:020020000000DE
:0E0022000201A36BA769A869A969A66B010E6C
:10003000AA6F1200D9CFE6FFE1CFD9FFE652020145
:10004000A3511FE1020108BF1BD0400EE66E700EE7
:10005000E66E010EE66E00EC06F0E552E552E55262
:100060000201010EA36FDF6A400EDF5C09E2DF5080
:10007000EA6AB00FE96E010EEA22EF6ADF2AF4D7CE
:1000800096D101017051080A01E180D10F0A01E106
:1000900023D1010A01E118D1030A01E1B4D0010A18
:1000A0006AE0070A5DE0010A01E081D10101020E68
:1000B000B06F01013A0EB16F0101010EB26F010183
:1000C000010EB36F0101B46B100EB56FB66BB76B59
:1000D0000101B86B300EB96FBA6BBB6B0101030E37
:1000E000BC6F0101BD6BBE6B300EBF6FC06B0101F9
:1000F0000E0EC16FC26BC36BC46B0101010EC56FE5
:100100000101C66BC76B200EC86FC96B0101080ED9
:10011000CA6FCB6BCC6BCD6B0101CE690101020EB6
:10012000CE6F0101CF6BD06BF00ED16FD26B01019E
:10013000D36B010ED46FD56BD66B0101D769020169
:100140000CBF0DD0400EE66EB00EE66E010EE66EF0
:10015000D0EC05F0E552E552E5520201A36B27D140
:100160000201010EAA6F0101715102E10201AA6BA5
:100170000201A36B1CD1400E0201A46FA56B02010A
:10018000000EA45D010EA5591FE20400A4C200F0F8
:10019000A5C201F0026A060E1F0B00C0F6FF01C0E7
:1001A000F7FF02C0F8FF06E0D890F636F736F836CB
:1001B000E806FAE1940EA66E9DD95AEC06F002010B
:1001C000A42B000EA523DBD7DF6ADF50A96EA86839
:1001D000040EA66E5AEC06F08DD9DF50DF2A006EB1
:1001E000016A026AFF0E005C000E0158000E025800
:1001F000ECE3F66AF76A200EF86E940EA66E7AD9D2
:100200000201A36BD4D0300E0101735D07E102013E
:10021000AA5101E132D90201A36BC9D0F00E01014C
:10022000735D04E14DD90201A36BC1D0E8680201FE
:10023000A71905E1E868A81902E1E868A91906E12B
:1002400071C1A7F272C1A8F273C1A9F2A70EE96E3B
:10025000020EEA6EEE500101711908E1EE50010143
:10026000721904E1EE500101731900E12AE1DF6A1D
:1002700001017551DF5C25E23A0E0101D880755508
:10028000DF24EA6A760FE96E010EEA22EF50E66E8D
:100290000201A651EA6AAB0FE96E020EEA22E552AC
:1002A000E750EF6E0201A62B0201A72B000EA82338
:1002B000000EA923100E0201A65D01E17DD8DF2A00
:1002C000D7D70201A36B73D077D80201A769A869B9
:1002D000A9690201A36B6BD00101070EB06F71C158
:1002E000B1F172C1B2F173C1B3F174C1B4F175C1AE
:1002F000B5F171C1F6FF72C1F7FF73C1F8FFDF6A94
:1003000001017551DF5C31E2F00E0101735D13E113
:10031000DF5001017125A96EA66AA6803A0E01017F
:10032000D8807555DF24EA6AB60FE96E010EEA221D
:10033000A8CFEFFF18D00900300EF85C08E1050ED9
:10034000F65C01E1F568080EF65C01E1F5683A0E2D
:100350000101D8807555DF24EA6AB60FE96E010EF7
:10036000EA22F5CFEFFFDF2ACBD702010CBF0DD079
:10037000400EE66EB00EE66E010EE66ED0EC05F0B5
:10038000E552E552E5520201A36B11D06492646A12
:10039000DF6AFF0EDF5C09E2E868E85004E0E80687
:1003A00000D000D0FAD7DF2AF4D7FF0000D0E55202
:1003B000E552E7CFD9FF12000101F16BA6C200F0B0
:1003C000016A026A00500201A75DF66E0150020147
:1003D000A859F76E02500201A959F86E0F0EF614D3
:1003E0000101F26FF00EF6160101F06B100E010123
:1003F000F05D1FE20101F25115E10201A6510FE08B
:100400000101F151EA6AAB0FE96E020EEA22EF50E8
:10041000F56E0D000101F12B0201A60702D0F5686F
:100420000D0004D0F5680D000101F2070101F02B69
:10043000DDD70A00A40EA66E5DD80101F06B0201A3
:10044000A6510101F05D18E20101F1510101F02511
:10045000EA6AAB0FE96E020EEA22EF50E66E010186
:10046000F051EA6AAB0FE96E020EEA22E552E7505C
:10047000EF6E0101F02BE3D7120071C1F6FF72C1DC
:10048000F7FF73C1F8FF0101F36B01017551010121
:10049000F35D15E23A0E0101D88075550101F3258F
:1004A000EA6A760FE96E010EEA22EF50F56E0C0053
:1004B000C40EA66E1FD809000101F32BE6D7120067
:1004C0000101F46B7551F45D14E27151F425A96ECC
:1004D0003A0ED8807555F425EA6A760FE96E010E5A
:1004E000EA22EF50A86E040EA66E04D80101F42B88
:1004F000E9D71200F29E550EA76EAA0EA76EA6822D
:08050000A6B2FED7A69412007A
:080508007DD9E652635032E197
:100510006296020100513C0BE842E8420D0828E1D6
:10052000180E021923E1020E031920E1100E026FCA
:10053000020E036FDF6ADF50006E016A080E005C76
:10054000000E015813E2DF50EA6A180FE96E020E3E
:10055000EA22EF50E66EDF50EA6A100FE96E020EF3
:10056000EA22E552E750EF6EDF2AE5D70ED80AD02F
:100570003FD808D0040E635C03E1629650D802D0E5
:10058000000E01D0010EE55242D13CD9E6520201E3
:1005900004BF046B0201F36BEB6BEC6BF16BF26B62
:1005A00013EC04F0DF6ADF50006E016A010E005C9C
:1005B000000E01581AE20201EC5117E1F76ADF342C
:1005C000FE0BF736F66E8E0EF6260E0EF72209009B
:1005D000F5CF00F00800F5CF01F004D001C0FAFF1C
:1005E0000050F96EFBDFDF2ADED7B7D8E5520FD116
:1005F000020E0201EB5D0EE184D80201180E026FBB
:10060000020E036F080E016F00BD02D0C80E05D0A8
:10061000880E03D0DBD8E7D88C0E006F1200040ED2
:100620000201F45D0CE112C25CFF0F015C51000895
:1006300003E20201050E02D00201030EF46F020173
:10064000EB0510E111D8020E0201F35D03E1020196
:10065000840E06D0020104BD02D0C80E01D0880E5F
:10066000046F1200E6EF03F0CDD8020EE12602017E
:10067000080EF15D000EF2590DE2F1C2DEFFF2C28A
:10068000DDFFF35102E1010E03D0F30506E1020E96
:10069000F36F03D0080EDE6EDD6A0201049304914D
:1006A000010EDB500413DFCF05F2000EDB50020118
:1006B000F15F010EDB50F25B180EEF6F020EF06F70
:1006C0000201F5A30CD097D815E0EDC2F6FFEEC2FB
:1006D000F7FF0800F5507FD8F6E2DB06F4D78BD899
:1006E00009E0EDC2E9FFEEC2EAFFEF5074D8F7E28D
:1006F000DB06F5D7020EE15C02E2E16AE552E16E4B
:1007000086D080D8020EE126030E02010015E76EA6
:10071000010EE7CFDBFF01C2DFFFDE500201F12750
:10072000DD50F223180EED6F020EEE6F64D80EE06E
:10073000EDC2E9FFEEC2EAFFEF50EFC2E9FFF0C2FF
:10074000EAFFEF6E68D8F2E2DB06F0D7020EE15C5A
:1007500002E2E16AE552E16E5AD064980201EC517E
:1007600005E141D8840E006F02011DD0020110AFD7
:100770001CD00201F1510201165D0201F251020189
:10078000175904E216C2F1F217C2F2F26DDF02014C
:10079000010EEB6F28D8800E006F0201180E066F55
:1007A000020E076FC80E046F12000201020EEB6FFB
:1007B0000201056BC80E046F0201080E016F180ECE
:1007C000026F020E036FC80E006F12000201EB6B86
:1007D0000201046B1200EFC2E9FFF0C2EAFFEF6E04
:1007E00002010BEF04F00201080E016F100E026F00
:1007F000020E036F1200D9CFE9FFDACFEAFFEE5005
:10080000ED101200D9CFE6FFE1CFD9FF1200E5527B
:10081000E7CFD9FF1200EF2B000EF023ED2BEE23D4
:06082000DF06010E1200CC
:0A08260002011051600BE842E842A5
:10083000E842E842E842000901E012001151070ACB
:1008400040E00B0A3EE0070A33E0010A23E00B0A0E
:100850001FE0020A1DE0030A19E0080A10E0010A7D
:100860000CE00F0A08E0030A01E0120012D90201AD
:10087000040EF46F120062EF04F099EF04F009D94E
:100880000201F60EED6F020EEE6F0CD0B4EF04F025
:10089000E6EF04F002D90201ED6FEE6BF70EED27E3
:1008A000020EEE230201F5930201010EF16F120018
:1008B000F4D8EA6AF70FE96E020EEA2212C2EFFFDD
:1008C00012001200800E0201105D32E11351030A82
:1008D0001FE0010A0AE0030A29E1DBD80201CE0E7B
:1008E000ED6F0D0EEE6F120E1ED0B2D8840EF626EE
:1008F0000E0EC0D8020E0201F76AED25F66EEE511B
:10090000F7220900F5CFF1F20A00F5CFF2F20ED08E
:100910009FD8880EF6260E0EADD8EDC2F6FFEEC2B9
:10092000F7FF0800F5500201F16FF26B0201F58349
:100930001200AFD8070EE66E540EE66E0F0EA2D868
:10094000010EE66EF70EE66E020E9CD812C2F6F2AB
:100950000201125104E10201050EF46F12000201BE
:10096000060EF46FBAEF05F00201186B196B020165
:1009700010511F0B020A0FE0030A0BE0010A18E1F5
:1009800088D8020118810201F5A112D00201188352
:100990000FD07FD80DD050D801E0010E62D8EFC241
:1009A000E9FFEA6EEF50040B03E00201010E186F3D
:1009B0000201EC050AE10201180EED6F020EEE6F66
:1009C0000201F5930201020EF16F120002011205FD
:1009D0000EE110511F0B00090AE15BD8030E020162
:1009E000115D03E10201F58102D00201F5910201DE
:1009F000125121E110511F0B02081DE114510F0B80
:100A0000000919E019D801E0010E2BD8030E0201EC
:100A1000115D02E1840E03D014AF07D0400EEFC287
:100A2000E9FFF0C2EAFFEF6E1200880EEFC2E9FFA5
:100A3000F0C2EAFFEF6E120030D80F0B080DF35032
:100A4000016A000F006E020E01221451800B120089
:100A500020D802011251F66EF76AD890F636F736B2
:100A60001200040DF35002010024EF6F000E01206C
:100A7000F06F1200F7220900F5CFEDF20A00F5CF72
:100A8000EEF21200E66ED2EC06F0E552E552E552C7
:100A900012000201010EEC6F1200FBDF0201145183
:020AA000120042
:0E0AA200020110511F0B010801E01200145157
:100AB00001E01200060E115D24E11351230A1FE02C
:100AC000010A0DE0030A1BE1DCD80201F60505E18D
:100AD0000201F20EED6F0D0EEE6F090E0DD0D1D8A2
:100AE0000201F60505E10201670EED6F0E0EEE6FD5
:100AF0000201F60504E11D0E0201F16FF26B020125
:100B0000F58302011051600BE842E842E842E842F6
:100B1000E842010801E0120011510B0A25E0080A21
:100B200017E0090A11E0080A09E00B0A05E0080AC3
:100B300001E01200B8EF05F0B9EF05F0A2D802010C
:100B4000F80EED6F020E09D09CD813C2F8F2120015
:100B500098D80201F90EED6F020EEE6F0201F593C7
:100B60000201010EF16F12008CD812C2F9F21200CC
:100B7000120012000201FA6B0F011E0E546F0201E7
:100B8000400E096F200E0A6F020E0B6F880E086F61
:100B90000201600E0E6F020E0F6F400E0C6F1200FE
:100BA000D9CFE6FFE1CFD9FFE652FC0EDB5040087B
:100BB00005E2400EF36EFC0EF3CFDBFFDF6AFC0EA6
:100BC000DB50DF5C0FE2DF5050D8EF50E66EDF50B5
:100BD000EA6A600FE96E020EEA22E552E750EF6E14
:100BE000DF2AEDD7FC0EDBCF0DF2400E02010C1711
:100BF0000C7D880E0C13E552E552E7CFD9FF1200A9
:100C0000D9CFE6FFE1CFD9FF0201FA6B020108BF9D
:100C100026D0FC0EDBCF00F00951D880005403E24F
:100C2000FC0E09C2DBFF0201FA6BFC0EDB50FA5D21
:100C30000FE2FA51EA6A200FE96E020EEA22EF5043
:100C4000E66EFA5112D8E552E750EF6EFA2BEDD767
:100C50000201400E096F0817087D880E0813020173
:100C6000FA51E552E7CFD9FF1200E76EFD0EDBCF58
:100C7000E9FFFE0EDBCFEAFFE750E926000EEA228D
:0A0C800012000201020EEC6F1200D8
:060C8A0064A60CD8020173
:100C9000F40508E164BA06D0626A606A6080608820
:100CA000020EF46F1200646A606A64860201010E2B
:100CB000F46F12000201F45101E1120062B425D870
:100CC00064B2120062B03AD862B817D862BA24D8B7
:100CD000030E0201F45D01E212000101FF6B040E3C
:100CE000FF5D0AE262A608D084EC02F0000901E18F
:100CF00062960101FF2BF3D7120060846298648230
:100D0000A194A0840300A09412006492609462A451
:100D100002D06294FCD712000F0153A10DD0800EB7
:100D20000201005D07E1840E0201045D03E102019E
:100D30008C0E006F0F015391629A12000F015F6BCE
:100D4000626A0F019F0E5B6F7B0E606E0F015C6B22
:100D5000070EE66E540EE66E0F0EE66E23D8E552D1
:100D6000E552E5520F01160E536F62A605D062964A
:100D700000D000D00000F9D76498E6EC03F002013F
:100D8000080E016F0201100E026F020E036F0201C6
:100D90008C0E006F0201F5910201F66B0201030E49
:100DA000F46F1200D9CFE6FFE1CFD9FFFD0EDBCF04
:100DB000E9FFFE0EDBCFEAFFFC0EDB5004E0EE6A3B
:0E0DC000FC0EDB06F9D7E552E7CFD9FF120093
:020DCE00120110
:100DD000000200000008D8043C00020001020001EB
:100DE00009022900010100C03209040000020300C9
:100DF0000000092111010001221D000705810340A7
:100E00000001070501034000010403090434034DF8
:100E1000006900630072006F006300680069007081
:100E200000200054006500630068006E006F006CD5
:100E3000006F0067007900200049006E0063002EFB
:100E40000026035500730062005400680075006DB1
:100E500000620042006F006F0074006C006F006160
:100E6000006400650072000600FF0901A10119017C
:100E70002940150026FF00750895408100190129B9
:100E8000409100C0E00DE00D090E0D0E410EA20ACA
:100E9000200EF66E000EF76E000EF86E01010900CE
:100EA000F550FA6F0900F550FB6F03E1FA6701D0C6
:100EB0003DD00900F550F56F0900F550F66F0900B7
:100EC000F550F76F09000900F550E96E0900F5507B
:100ED000EA6E090009000900F550F86F0900F550A5
:100EE000F96F09000900F6CFFCF1F7CFFDF1F8CF5B
:100EF000FEF1F5C1F6FFF6C1F7FFF7C1F8FF0101FA
:100F0000F85302E1F95307E00900F550EE6EF807D7
:100F1000F8E2F907F9D7FCC1F6FFFDC1F7FFFEC102
:0E0F2000F8FF0101FA07000EFB5BBFD71200BD
:020F2E000F0EA4
:100F3000C16E80A604D0070EC16E00EF08F00DD878
:100F4000040015D8060E0201F45D05E16450020BA1
:100F500002E11AEC00F0F4D71200140E616E0201E7
:100F6000F46B0201F56B0201F66B11EF00F045EC3A
:060F700006F05AEF06F046
:0A0F7600000EF36E00EE00F0030E13
:100F800001D81200EA6002D0EE6AFCD7F350E960A3
:060F90001200EE6AFCD71E
:0A0F960011EE00F021EE00F0F86A01
:100FA000049C48EC07F0D9EC07F097EC07F0FBD76E
:020FB00012002D
:020FB20012002B
:020000040030CA
:0100000000FF
:0100010032CC
:0100020001FC
:010003001EDE
:0100050000FA
:0100060001F8
:0100080003F4
:01000900C036
:01000A0003F2
:01000B00E014
:01000C0003F0
:01000D0040B2
:00000001FF
