:020000040000FA
:06000000C0EF12F0120037
:0600080004EF08F01200F5
:060018000CEF08F01200DD
:06100000C0EF12F0120027
:021006001200D6
:06100800CAEF0DF012001A
:02100E000000E0
:0110100000DF
:0610180015EF0EF01200BE
:02101E000100CF
:0C1020000E100000F200000003000000B1
:04102C0028EC0DF0AF
:101030000F015F6B626A160E616E9F0E5B6F7B0E17
:10104000606E648C5C6B11EC0DF0649CDF6ADF50A9
:10105000106E116A100E105C000E115810E2DF5075
:10106000040DF3CFE9FFF4CFEAFF000EE926020EEC
:10107000EA22EE6AEE6AEE6AEE6ADF2AE8D70F012C
:10108000160E536F62A602D06296FCD701015B6B0D
:10109000606B616B626B6498080E4F6F020E506F4D
:1010A000416B406BE552EEEF0CF028EC0DF00101C6
:1010B000400507E164BA05D0626A60806088020E6C
:1010C000406F6250040B05E06050040B02E0629434
:1010D0008AD864B249D06250010B12E06050010B13
:1010E0000FE0A4DF0101040E406F0201400E026F09
:1010F000020E036F080E016F006B8C0E00136290DE
:101100006250100B05E06050100B02E064D862984A
:101110006250400B09E06050400B06E05FEC0DF0C0
:10112000730EE1EC0CF0629C6250200B04E0605006
:10113000200B01E03CD86250020B0BE06050020B28
:1011400008E05FEC0DF0E668E668A7EC0DF00F0133
:101150005F6B040E0101E76E4019E8AE02D0E73480
:1011600002D0E750405D02E2A1941ED060A61BD0E1
:10117000DF6A040EDF5C17E262A615D063CF68F168
:101180006296780E0101681502E138D80AD0000E87
:10119000E66EE66A680EE66E010EE66E720EE1EC31
:1011A0000CF0DF2AE6D7A194E552EEEF0CF00F0128
:1011B00053A10FD0F5EC0CF0EF50800809E1DCEC06
:1011C0000CF0EF50840804E1F5EC0CF08C0EEF6E9F
:1011D0005391629A12006084629864822BEC0DF045
:1011E000750EE1EF0CF02BEC0DF0740EEADB64925F
:1011F000609462A402D06294FCD7120028EC0DF037
:10120000FD0E0101681543E17E0E6815E8407F0B75
:10121000040DF3CF43F1F4CF44F1000E4327020E47
:10122000442343C145F144C146F14575DEDBEF502F
:101230003C0BE842E8420D0828E1D7DB8EEC0DF0CC
:10124000EECF10F0EFCF11F0480E10181CE1020E97
:10125000111819E1BFEC0DF0DF6ADF50106E116A52
:10126000080E105C000E11580EE2DF5048EC0DF035
:10127000DF50EA6A400FE96E020EEA22E552E750BB
:10128000EF6EDF2AEAD70AD807D01AD805D0FD0EAC
:101290006815040801E122D8E552A0D38DDBEF5098
:1012A000800B02E089DBEF6A0101576B586B5C6BC6
:1012B0005D6B5B6B67D8CFDB030E83DBF7EF0AF068
:1012C000020E0101585D02E184EF0BF037D80101F5
:1012D000695102E193EF0DF0696B1200B9DB6CDB31
:1012E000EF50400B01E0010EDF6E01014F75080E5B
:1012F000405D0CE142C25CFF0F015C51000803E25B
:101300000101100E02D00101040E406F580513E1D7
:10131000C3EC0DF0A6D9020E0101575D03E14CDBD1
:10132000840E07D0DF5003E147DBC80E02D044DB58
:10133000880EEF6E01D002D8E55250D34BDB01018D
:10134000586B3ADBEF6A040E4F19106E50C111F062
:10135000DE6E50C1DDFF39DBEF6A60AF0CD0635148
:10136000641107E005D064C1FAFF01016351F96E11
:10137000FADF0101609F020EE15C02E2E16AE552E0
:10138000E16E2CD302014051600BE842E842E84292
:10139000E842E842000901E0120041510C0A45E030
:1013A0000B0A3FE00C0A31E0010A22E00B0A1EE0C2
:1013B000020A1CE0030A18E0080A10E0010A0CE027
:1013C0000F0A08E0030A01E0120001015B8F080E1A
:1013D000406F120077EF0AF0E0EF0BF00101410ED1
:1013E000596F010E5A6F0CD0B8EF0AF016EF0AF0E1
:1013F00044510101596F5A6B420E5927010E5A236D
:101400005B81010E5C6F5B8F120001015B8F02013B
:101410004451EA6A420FE96E010EEA2242C2EFFF2E
:10142000120019DB020EE1EF0CF0120080DB040E5B
:10143000E1260201420510E140511F0B00090CE1B9
:1014400001015B8F030E0201415D04E10101010E08
:10145000676F02D00101676B0201425141E14051C7
:101460001F0B02083DE144510F0B000939E0010157
:101470005B8F020144BF05D0BDDA470EE926010E9D
:1014800004D0B8DA4F0EE926010EF6DA030E415DFC
:1014900003E19BDA840E23D044510F0B116A530FE2
:1014A000106E0F0E1122020E10C0DBFF030E11C0D2
:1014B000DBFF020EDBCFE9FF030EDBCFEAFFEE908E
:1014C000ED5244AF06D081DAEF6ADF747EDA400E67
:1014D00006D07BDA880EEF6EDF7477DAC80EEF6E17
:1014E000040EE15C02E2E16AE552E16E77D2800E21
:1014F0000201405D3CE10101C00E5B6F02014351FE
:10150000030A1EE0010A09E0030A2FE101017C0E33
:10151000596F230E5A6F120E22D0D8DA3D0EF626DE
:10152000240EBEDA020E0101F76A5925F66E5A51F1
:10153000F7220900F5CF5CF10A00F5CF5DF112004A
:10154000030E425D0FE2C2DA3F0EF626240EA8DA41
:1015500059C1F6FF5AC1F7FF0800F55001015C6F51
:101560005D6B120001015B6B120001015B6B1200ED
:1015700031DA0201486B496B40511F0B020A11E03E
:10158000030A0CE0010A22E101015B8F020148819C
:10159000010167051BE10201488318D001015B8F3F
:1015A00015D001015B8F020144BF05D023DA470E3D
:1015B000E926010E04D01EDA4F0EE926010E5CDA90
:1015C00004DAEF50040B02E0010E486F01015BAF3B
:1015D00007D0480E596F020E5A6F5B81020E5C6F86
:1015E000020EE15C02E2E16AE552E16EF7D1649835
:1015F00001015BBF08D060AF02D076DA2AD093DA5F
:10160000DBD9840E27D060BF2BD0020140AF24D09D
:1016100001015C510201465D01015D510201475922
:1016200004E246C25CF147C25DF11BD80101010E24
:10163000586FADDA800EEF6E696BD7D9EE52080E97
:10164000EF6E9DDAD2D9840EEF6E010E696F9BDAD0
:10165000B3D9C80EEF6E1200010146DAC80EEF6E64
:101660001200B8D90101080E5C5D000E5D590DE253
:101670005CC1DEFF5DC1DDFF575102E1010E03D009
:10168000570506E1020E576F03D0080EDE6EDD6AC5
:1016900093D9EF9291D9EF908FD9010EDB50EF12D1
:1016A0008BD9EE52DFCFEFFF000EDB505C5F010EF7
:1016B000DB505D5B480E656F020E666F5BB10FD04D
:1016C0000CDA1BE059C1F6FF5AC1F7FF592B000E87
:1016D0005A230800F550AED9F3E2DB06F1D7FDD965
:1016E0000CE059C1E9FF5AC1EAFF592B000E5A23F9
:1016F000EF50A0D9F4E2DB06F2D7020EE15C02E281
:10170000E16AE552E16E6AD165D96FD9EE52EFCF49
:10171000DFFFDFCF10F010500101615D000E625954
:1017200003E261C1DFFF09D0DF50106E116AE8509B
:10173000615D616F11506259626F010EDB6ADF50AB
:10174000F36E010EDBCFF4FFF350F45C10E2010EF8
:10175000DB509ED95EC1E9FF5FC1EAFF5E2B000E40
:101760005F23E552E750EF6E010EDB2AE8D7000E4B
:10177000D8806155000E62550DE212D978D935D95D
:10178000EF50400B03E1F6D9C80E02D0F3D9880E12
:10179000EF6E0FD0FCD9840EEF6E6351641107E039
:1017A00005D064C1FAFF01016351F96EFADF01014E
:1017B000609F020EE15C02E2E16AE552E16E0ED149
:1017C00001015B8F2ED9010EE66EE66AE66A420ED3
:1017D000E66E010EB4D942C241F10101415103E16B
:1017E000100E406F1200200E406F010EE66EE66A8A
:1017F000410EE66E010EE66E010EE1EF0CF0EAD846
:10180000000EDE6E020EDD6EFDD8040DF350106E7C
:10181000116A020E0F0B05E0D89011321032E80663
:10182000FBE1D89010361136D89010361136D9CF4A
:10183000E9FFDACFEAFF1050EE261150ED22C5D8AD
:10184000EF9EFD0EDB5002E1E7D801D0B0D8EA22CE
:10185000DECFEEFFDDCFEDFFB8D8EF9CB6D8040E9B
:10186000E926000EEA22EF8C020EE15C02E2E16A58
:10187000E552E16EB3D0AED8FE0EDB50116A530FC5
:10188000106E0F0EFFD8A1D8FD0EDBCFEFFFDBA44B
:1018900002D0E66A0DD9FD0EDBA203D0010EE66E82
:1018A00007D9020EE15C02E2E16AE552E16E96D0F0
:1018B00091D8FE0EDB5005E136D97ED8840EEF6E4E
:1018C00005D0A0D81DD99ED8010F1AD9020EE15C0F
:1018D00002E2E16AE552E16E81D07CD8FD0EDB5078
:1018E00002E065D801D098D8C7D86FD817D9FB0EB9
:1018F000DBCFEEFFFC0EDBCFEDFF67D8EE52FA0E2A
:10190000DBCFEFFF400E61D8E850EF16880E5DD8B0
:10191000E850EF12FD0EDB5002E049D801D07CD830
:10192000EA22EF74DECF10F0DDCF11F010C0F3FF2C
:1019300011C0F4FF020EE15C02E2E16AE552E16EE1
:101940004DD0F5D864A812D0F7D8400EEE16EE6A46
:10195000EE6AEE6AF1D8EE7C2AD8EA22EF74400EE5
:10196000106EEAD81050EF16E7D8EF7C37D012008F
:101970000101405114E1646A606A160E616E0F0144
:101980009F0E5B6F7B0E606ED08EA284A084F28E61
:1019900064B602D06486FCD70101010E406F1200CC
:1019A000E9D8EE52080EEF6EE5D88EEF0DF0D6D8DE
:1019B0004F0EE926010E12004FC1E9FF50C1EAFFA8
:1019C0001200E66EE66AA7EF0DF0DECFE9FFDDCF8D
:1019D000EAFF1200ACD8020EE1261200E552E7CF72
:1019E000D9FF1200C2D8BAEF0DF043C1E9FF44C1DC
:1019F000EAFF120044510F0BE96EEA6AD890E9360B
:101A0000EA361200FD0EDB50E824126EFE0EDB50AB
:101A1000040DF35012241200A1D8470EE926010E3E
:101A20001200020EE66EE66AE66A540EE66E0F0ECD
:101A30009FEF0DF0E66E65C1E9FF66C1EAFF652B19
:101A4000000E6623E552E750EF6EDF06010E12002E
:101A50006ED8E6521200000EE66EE66AE66EE66AA0
:101A60001200EA22EE50EFCFEAFFE96E1200480EB4
:101A7000EE6E020EED6E1200EA22EECFDEFFEDCF2B
:101A8000DDFF1200112210C0DEFF11C0DDFF1200C9
:101A9000EA6A480FE96E020EEA22EF50E66E120083
:101AA000F7220900F5CF59F10A00F5CF5AF11200DB
:101AB000FE0EDBCFE6FFA3DEE552E5521200010E7B
:101AC000E66EE66A000EE66EE66A12004251F66EB7
:101AD000F76AD890F636F7361200D9CFE9FFDACF99
:101AE000EAFFEE50ED101200020E586F65DFEE5265
:101AF000EF6A62DFC80EEF6E53DFB9DFBAEF0DF0A9
:101B0000040DF3CF10F0F4CF11F0000E1026020EEA
:101B1000B9DF840E5ADFE850EF121200020EE926F8
:101B2000000EEA22120033D88C0EEF6E1200D9CFCD
:101B3000E6FFE1CFD9FF12003ADF31EF0DF0E66E9C
:101B400096EC12F0106E050EE15E105012008AEC59
:101B50000FF0106E060EE15E10501200FE0EEA6AE3
:101B6000DB34FE0BEA36E96E1200400EEE6E020E1A
:101B7000ED6E120045C1E9FF46C1EAFF120035DFF4
:101B8000CDDFB5EF0DF018DFC9DF37EF0DF008DF5F
:041B9000F2EF0CF074
:0C1B9400DACFE4FFE2CFDAFFE9CFE4FF94
:101BA000EACFE4FFF6CFE4FFF7CFE4FFF5CFE4FFA1
:101BB000F3CFE4FFF4CFE4FFFACFE4FF00EE00F050
:101BC000100EE80403E3EECFE4FFFBD700EE10F0C5
:101BD000080EE80403E3EECFE4FFFBD7E65255EC32
:101BE00008F0E55200EE17F0080EE80403E3E5CF35
:101BF000EDFFFBD700EE0FF0100EE80403E3E5CF96
:101C0000EDFFFBD7E5CFFAFFE5CFF4FFE5CFF3FF1C
:101C1000E5CFF5FFE5CFF7FFE5CFF6FFE5CFEAFF2C
:101C2000E5CFE9FFE5CFDAFF1100D8CFE4FFE0CF41
:101C3000E4FFE46EDACFE4FFE652E552E5CFDAFFE7
:101C4000E550E5CFE0FFE5CFD8FF100004D8B8ECB1
:101C50000CF09AD8FED70F0EC11202D816EF08F07A
:101C6000A4D9E65218D8DF6ADF50106E116A400E10
:101C7000105C000E115805E2DF50A0D9EF6ADF2A90
:101C8000F3D70001E16BE26BE46BE56BF00E8B16B2
:101C90009416E5528FD189D9E6527F6A938A939E32
:101CA0009398939C240EAC6E900EAB6E710EAF6E3B
:101CB000020EB06E080EB86EAE50DF6EE5527AD1ED
:101CC00074D9FE0EDB50AD6E75D16FD9040EE126CE
:101CD000D880000E02015055C20E5155010E5255CA
:101CE000000E53553CE350C2D8F251C2D9F252C251
:101CF000DAF253C2DBF2146A1B0E156EB70E166EC3
:101D0000176A14C004F015C005F0066E17C007F07E
:101D1000D8C209F0D9C20AF0DAC20BF0DBC20CF06B
:101D200072EC12F004C010F005C011F006C012F001
:101D300007C013F01006000E115A125A135A10C0A1
:101D4000DFFF010E11C0DBFF020E12C0DBFF030E2E
:101D500013C0DBFFDF50AF6E010EDB50B06E040E20
:101D6000E15C02E2E16AE552E16E24D11ED9E6525D
:101D7000ABA205D0AB98AE50DF6EAB8802D0AE50B0
:101D8000DF6EDF50E55216D164D8200E0101E76EF8
:101D90004019E8AE02D0E73402D0E750405D58E386
:101DA0006450020B01E012000001F25115E1400EF7
:101DB000E66EA10EE66E000EE66E61EC10F0E552E6
:101DC000E552E5520001E26FE850000805E200012B
:101DD000010EF26F0001E36B0001F25115E0AC500F
:101DE000020B12E00001E351EA6AA10FE96E000E56
:101DF000EA22EF50E66E64DFE5520001E32BE25188
:101E0000E35D02E10001F26B9EAA0CD0AFDFE66E4B
:101E10000001E151D3D8E552E750EF6EE12BE151DB
:101E2000CDD8EF6A0101775111E10001E1510008BD
:101E30000DE2E1C0E6FF610EE66E000EE66EA0EC7C
:101E400010F0E552E552E5520001E16BF1EC10F0C3
:101E500012000001F351F41104E1100EF36F270E8C
:101E6000F46FF307000EF45B64A207D0F351F41192
:101E70002EE18B708BB013D027D00101405102E1CD
:101E80008B9022D0400502E18B8009D0020E405D8C
:101E900002E18B8019D0040E405D03E18B908B82B0
:101EA0001200100E405D06E10001F351F4110FE144
:101EB0008B700AD0200E405D0AE10001F351F4114D
:101EC00006E18B708BA002D08B9212008B821200E5
:101ED0001200120012001200E4EC0FF00001605139
:101EE00002E0000E01D0010EE8B0818CE8A0819CD8
:101EF000120012003FEF10F064840001080EE66F3C
:101F0000070EE76FE607000EE75BE651E711FAE11F
:101F100064941200D9CFE6FFE1CFD9FFFD0EDBCFED
:101F200006F0FE0EDBCF07F0720E061801E1075037
:101F300033E0E868061802E1E86807182BE0740E41
:101F4000061801E1075024E0750E061801E107505C
:101F50001DE0730E061801E1075016E0030E061887
:101F600001E107500FE0020E061801E1075008E0FA
:101F7000010E061801E1075001E010D0BBDF0FD0C1
:101F8000B8DF0DD0A9DF0BD0A5DF09D0A1DF07D0C6
:101F9000A0DF05D0A0DF03D0000001D000D0010EEB
:101FA00000D0E552E7CFD9FF1200D9CFE6FFE1CF4D
:101FB000D9FF1200E552E7CFD9FF1200EA6A610F9C
:081FC000E96E000EEA22120096
:081FC800020140511F0B01084A
:101FD00001E012004051600BE842E842E842E8426A
:101FE000E842010801E01200445103E0440501E029
:101FF00012004151220A33E0030A26E0010A15E0EB
:10200000210A0DE0010A01E012000101870E596F5B
:10201000010E5A6F080E5C6F5D6B5B812ED0010163
:10202000870E596F010E5A6F28D046C261F147C220
:1020300062F10101500E5E6F020E5F6FCA0E636F98
:102040001C0E646F608F12000101D80E596F020ED2
:102050005A6F070E5C6F5D6BC10E5B6F120042C260
:1020600082F101018251020B02E0818801D0819846
:102070008251010B0001606F01015B8F12000201B0
:10208000D86B4B0ED96FDA6BDB6BDC6BDD6B080E3C
:10209000DE6F0101776B766B1A0EE66E020EE66E4E
:1020A0003BEC0CF0E552E5521E0EE66E030EE66EBA
:1020B0003BEC0CF0E552E55245D90101806B816B98
:1020C00012002BD90101766B7E517F1102E1000EC7
:1020D00005D033D9EF50800B01E0010E00092DE14E
:1020E000FC0EDBCF10F029D9EE52EF50D8801054FF
:1020F00005E223D9EE52FC0EEFCFDBFF766BFC0E30
:10210000DB50765D19E27651EA6A580FE96E020EED
:10211000EA22EF50E66E7651E76EFD0EDBCFE9FF67
:10212000FE0EDBCFEAFFE750E926000EEA22E55279
:10213000E750EF6E762BE3D705D901017651F2D047
:10214000ECD8A0940101775107E1E0D8FC0EDBCF79
:102150007CF1010E7D6F776FA084E4D008D917E180
:10216000BAD8E4D802E111500BE0010EDBCFE9FF51
:10217000DB2A020EDBCFEAFF01E3DB2AEF50F1E1BD
:10218000C5D8DFCF7CF10101010E7D6F776FA08490
:10219000030EE15C02E2E16AE552E16EC3D0E7D8EA
:1021A00018E199D8C3D802E111500CE0010EDBCF41
:1021B000F6FFDB2A020EDBCFF7FF01E3DB2A080084
:1021C000F550F0E1A3D8DFCF7CF101017D6B010E6A
:1021D000776FA084030EE15C02E2E16AE552E16EF2
:1021E000A1D09BD8020EE126A0940101805181115B
:1021F00002E1000E08D080C1E9FF81C1EAFFEF5083
:10220000800B01E0010E000906E1030E775D01E19C
:10221000776B775102E1A0844ED0020E775D09E121
:10222000E66A000EE66EE66A9AD80101030E776F41
:1022300041D077053FE1400E106E116A7C51105C71
:10224000000E115803E2400EDF6E02D07CC1DFFFAA
:10225000DF507C5D7C6F980E7A6F020E7B6F010EF3
:10226000DFCFDBFF7D510BE1010EDB5012E078C1C7
:10227000F6FF79C1F7FF0800F5503BD8F5D7010EFE
:10228000DB5007E078C1E9FF79C1EAFFEF5031D8B0
:10229000F6D701017C5107E1400EDF5C02E1020E3E
:1022A00001D0030E776FDFCFE6FF980EE66E020EC9
:1022B000E66E55D8A084020EE15C02E2E16AE552C6
:1022C000E16E30D0030EE66E6DEC0CF0106E050E74
:1022D000E15E10501200DF6AFD0EDBCF06F0FE0E4D
:1022E000DBCF07F0DE5206C0DEFF07C0DDFFDD52A8
:1022F00012007AC1E9FF7BC1EAFFEF6E7A2B000E74
:102300007B23782B7923010EDB061200FD0EDBCF39
:1023100078F1FE0EDBCF79F11200D9CFE6FFE1CFE5
:10232000D9FF1200E552E7CFD9FF1200DF2ADF50B4
:10233000106E116AFF0E101812007EC1E9FF7FC1F6
:10234000EAFF1200400EE66E580EE66E020EE66ED2
:10235000E66AB8DFF3CF7EF1F4CF7FF11200010E11
:10236000E66EB0DFF3CF80F1F4CF81F11200D5DF5C
:0C237000030EE126A09401017751120039
:04237C001201000248
:1023800002000008D8040A0000010102000109024D
:102390004300020100C032090400000102020100F2
:1023A000052400100104240202052406000105246E
:1023B0000100010705820308000209040100020A66
:1023C00000000007050302400000070583024000EB
:1023D000000403090434034D006900630072006FB8
:1023E000006300680069007000200054006500630D
:1023F0000068006E006F006C006F006700790020BD
:102400000049006E0063002E003403430044004383
:10241000002000520053002D003200330032002013
:102420000045006D0075006C006100740069006F6C
:10243000006E00200050006F00720074008E23D1E7
:0524400023D52309244F
:0A2446001E0EF66E100EF76E000E6B
:10245000F86E00010900F550ED6F0900F550EE6FC0
:1024600003E1ED6701D03DD00900F550E86F0900A8
:10247000F550E96F0900F550EA6F09000900F550C1
:10248000E96E0900F550EA6E090009000900F550EF
:10249000EB6F0900F550EC6F09000900F6CFEFF083
:1024A000F7CFF0F0F8CFF1F0E8C0F6FFE9C0F7FFA2
:1024B000EAC0F8FF0001EB5302E1EC5307E009002A
:1024C000F550EE6EEB07F8E2EC07F9D7EFC0F6FF38
:1024D000F0C0F7FFF1C0F8FF0001ED07000EEE5B62
:0424E000BFD7120050
:0C24E400036A026A016A006A200EE76EBB
:1024F000D8900436053606360736003601360236E1
:1025000003360950005C0A5001580B5002580C5019
:10251000035809E30950005E0A50015A0B50025A51
:0C2520000C50035A042AE72EE4D71200E6
:04252C00FE0EE3CFED
:10253000E9FFFF0EE3CFEAFFE9CFF3FFEACFF4FFB5
:10254000FB0EE35003E1FC0EE35009E0FB0EE30653
:1025500002E2FC0EE306FD0EE350EE6EF1D7120030
:10256000000EF36E00EE00F0030E01D81200EA60D8
:1025700002D0EE6AFCD7F350E9601200EE6AFCD795
:1025800011EE00F021EE00F0F86A0F9C23EC12F03F
:0C25900003EC08F026EC0EF0FBD7120064
:020000040030CA
:0100000000FF
:0100010032CC
:0100020001FC
:010003001EDE
:0100050000FA
:0100060001F8
:0100080003F4
:01000900C036
:01000A0003F2
:01000B00E014
:01000C0003F0
:01000D0040B2
:00000001FF
