:020000040000FA
:06000000B8EF10F0120041
:0600080004EF08F01200F5
:060018000CEF08F01200DD
:06100000B8EF10F0120031
:021006001200D6
:06100800C1EF0DF0120023
:02100E00FCFCE8
:06101000FC0004040400D2
:06101800D3EF0DF0120001
:02101E000100CF
:0C1020008C2100009B0000000500000077
:04102C0017EC0DF0C0
:101030000F015F6B626A160E616E9F0E5B6F7B0E17
:10104000606E648C5C6B00EC0DF0649CDF6A37ECC6
:101050000DF010E2DF50040DF3CFE9FFF4CFEAFF0B
:10106000000EE926020EEA22EE6AEE6AEE6AEE6AE7
:10107000DF2AEDD70F01160E536F62A602D06296DB
:10108000FCD70001736B786B796B7A6B6498080EF0
:101090006B6F020E6C6F616B606BE552DDEF0CF0F5
:1010A00017EC0DF00001605110E1646A606A160EE1
:1010B000616E0F019F0E5B6F7B0E606E64B602D097
:1010C0006486FCD70001010E606F600508E164BA18
:1010D00006D0626A606A60806088020E606F62504B
:1010E000040B05E06050040B02E0629489D864B2FE
:1010F00049D06250010B12E06050010B0FE096DF07
:101100000001040E606F0201200E026F020E036FD9
:10111000080E016F006B8C0E001362906250100B72
:1011200005E06050100B02E063D862986250400BFB
:1011300009E06050400B06E056EC0DF0730ED0EC69
:101140000CF0629C6250200B04E06050200B01E028
:101150003CD86250020B0BE06050020B08E056ECEA
:101160000DF0E668E6689EEC0DF00F015F6B040E73
:101170000001E76E6019E8AE02D0E73402D0E75014
:10118000605D02E2A1941ED060A61BD0DF6A040E4F
:10119000DF5C17E262A615D063CF80F06296780E0E
:1011A0000001801502E137D80AD0000EE66EE66A2B
:1011B000800EE66E000EE66E720ED0EC0CF0DF2AAA
:1011C000E6D7A194E552DDEF0CF00F0153A10ED04C
:1011D000E4EC0CF0EF50800808E1DDDBEF50840810
:1011E00004E1E4EC0CF08C0EEF6E5391629A120065
:1011F0006084629864821AEC0DF0750ED0EF0CF0EA
:101200001AEC0DF0740ECCDB6492609462A402D0F0
:101210006294FCD7120017EC0DF0FD0E0001801552
:101220003EE17E0E8015E8407F0B040DF3CF63F0A6
:10123000F4CF64F0000E6327020E642363C065F0F0
:1012400064C066F06575C0DBEF503C0BE842E842D5
:101250000D0823E1B9DB85EC0DF0EECF0BF0EFCFFD
:101260000CF0280E0B1817E1020E0C1814E1B6EC66
:101270000DF0DF6A37EC0DF00EE2DF503FEC0DF0C1
:10128000DF50EA6A200FE96E020EEA22E552E750CB
:10129000EF6EDF2AEFD70AD807D01AD805D0FD0E97
:1012A0008015040801E122D8E55287D374DBEF50A2
:1012B000800B02E070DBEF6A00016F6B706B746B88
:1012C000756B736B67D8B6DB030E6ADBFFEF0AF052
:1012D000020E0001705D02E18CEF0BF037D80001C7
:1012E000815102E18AEF0DF0816B1200A0DB53DB2C
:1012F000EF50400B01E0010EDF6E00016B75080E30
:10130000605D0CE122C25CFF0F015C51000803E24A
:101310000001100E02D00001040E606F700513E191
:10132000BAEC0DF0A6D9020E00016F5D03E133DBCC
:10133000840E07D0DF5003E12EDBC80E02D02BDB7A
:10134000880EEF6E01D002D8E55237D332DB0001B0
:10135000706B21DBEF6A040E6B190B6E6CC00CF026
:10136000DE6E6CC0DDFF20DBEF6A78AF0CD07B5106
:101370007C1107E005D07CC0FAFF00017B51F96EBB
:10138000FADF0001789F020EE15C02E2E16AE552B9
:10139000E16E13D302012051600BE842E842E842BB
:1013A000E842E842000901E0120021510C0A45E040
:1013B0000B0A3FE00C0A31E0010A22E00B0A1EE0B2
:1013C000020A1CE0030A18E0080A10E0010A0CE017
:1013D0000F0A08E0030A01E012000001738F080EF3
:1013E000606F12007FEF0AF0E8EF0BF00001610E72
:1013F000716F000E726F0CD0C0EF0AF01EEF0AF092
:1014000024510001716F726B620E7127000E7223FE
:101410007381010E746F738F12000001738F0201CC
:101420002451EA6A620FE96E000EEA2222C2EFFF3F
:10143000120000DB020ED0EF0CF012006FDB040E86
:10144000E1260201220510E120511F0B00090CE1E9
:101450000001738F030E0201215D04E10001010E02
:101460007F6F02D000017F6B0201225141E12051C8
:101470001F0B02083DE124510F0B000939E0000168
:10148000738F020124BF05D0A4DA670EE926000E8F
:1014900004D09FDA6B0EE926000EDDDA030E215D23
:1014A00003E182DA840E23D024510F0B0C6A530F10
:1014B0000B6E0F0E0C22020E0BC0DBFF030E0CC0D6
:1014C000DBFF020EDBCFE9FF030EDBCFEAFFEE907E
:1014D000ED5224AF06D068DAEF6ADF7465DA400EA9
:1014E00006D062DA880EEF6EDF745EDAC80EEF6E39
:1014F000040EE15C02E2E16AE552E16E5ED2800E2A
:101500000201205D3CE10001C00E736F0201235116
:10151000030A1EE0010A09E0030A2FE10001A40EFC
:10152000716F1E0E726F120E22D0C7DA700EF62681
:101530001F0EADDA020E0001F76A7125F66E7251C8
:10154000F7220900F5CF74F00A00F5CF75F012000C
:10155000030E225D0FE2B1DA720EF6261F0E97DA45
:1015600071C0F6FF72C0F7FF0800F5500001746FFC
:10157000756B12000001736B12000001736B120097
:1015800018DA0201286B296B20511F0B020A11E0A7
:10159000030A0CE0010A22E10001738F0201288195
:1015A00000017F051BE10201288318D00001738F21
:1015B00015D00001738F020124BF05D00ADA670E2F
:1015C000E926000E04D005DA6B0EE926000E43DA98
:1015D000EBD9EF50040B02E0010E286F000173AF4E
:1015E00007D0280E716F020E726F7381020E746F36
:1015F000020EE15C02E2E16AE552E16EDED164983E
:10160000000173BF08D078AF02D065DA2AD082DA41
:10161000C2D9840E27D078BF2BD0020120AF24D0AE
:10162000000174510201265D000175510201275924
:1016300004E226C274F027C275F01BD80001010E27
:10164000706F9CDA800EEF6E816BBED9EE52080E81
:10165000EF6E8CDAB9D9840EEF6E010E816F8ADAE3
:101660009AD9C80EEF6E1200000135DAC80EEF6E7F
:1016700012009FD90001080E745D000E75590DE22D
:1016800074C0DEFF75C0DDFF6F5102E1010E03D0B3
:101690006F0506E1020E6F6F03D0080EDE6EDD6A85
:1016A0007AD9EF9278D9EF9076D9010EDB50EF120C
:1016B00072D9EE52DFCFEFFF000EDB50745F010EE8
:1016C000DB50755B280E7D6F020E7E6F73B10FD0FD
:1016D000FBD91BE071C0F6FF72C0F7FF712B000E43
:1016E00072230800F55095D9F3E2DB06F1D7ECD967
:1016F0000CE071C0E9FF72C0EAFF712B000E72238B
:10170000EF5087D9F4E2DB06F2D7020EE15C02E289
:10171000E16AE552E16E51D14CD956D9EE52EFCF84
:10172000DFFFDFCF0BF00B500001795D000E7A591F
:1017300003E279C0DFFF09D0DF500B6E0C6AE8507E
:10174000795D796F0C507A597A6F010EDB6ADF5040
:10175000F36E010EDBCFF4FFF350F45C10E2010EE8
:10176000DB508DD976C0E9FF77C0EAFF762B000EFB
:101770007723E552E750EF6E010EDB2AE8D7000E23
:10178000D8807955000E7A550DE2F9D85FD91CD969
:10179000EF50400B03E1E5D9C80E02D0E2D9880E24
:1017A000EF6E0FD0EBD9840EEF6E7B517C1107E00A
:1017B00005D07CC0FAFF00017B51F96EFADF000111
:1017C000789F020EE15C02E2E16AE552E16EF5D03B
:1017D0000001738F15D9010EE66EE66AE66A620EA5
:1017E000E66E000EA3D922C261F00001615103E14F
:1017F000100E606F1200200E606F010EE66EE66A3A
:10180000610EE66E000EE66E010ED0EF0CF0D1D840
:10181000000EDE6E020EDD6EE4D8040DF3500B6E8A
:101820000C6A020E0F0B05E0D8900C320B32E80662
:10183000FBE1D8900B360C36D8900B360C36D9CF4E
:10184000E9FFDACFEAFF0B50EE260C50ED22ACD8C0
:10185000EF9EFD0EDB5002E1CED801D097D8EA22F0
:10186000DECFEEFFDDCFEDFF9FD8EF9C9DD8040EBD
:10187000E926000EEA22EF8C020EE15C02E2E16A48
:10188000E552E16E9AD095D8FE0EDB500C6A530FEC
:101890000B6E0F0EE6D888D8FD0EDBCFEFFFDBA472
:1018A00002D0E66AFCD8FD0EDBA203D0010EE66E84
:1018B000F6D8020EE15C02E2E16AE552E16E7DD00B
:1018C00078D8FE0EDB5005E125D965D8840EEF6E81
:1018D00005D087D80CD985D8010F09D9020EE15C53
:1018E00002E2E16AE552E16E68D063D8FD0EDB509A
:1018F00002E04CD801D07FD8AED856D806D9FB0E1E
:10190000DBCFEEFFFC0EDBCFEDFF4ED8EE52FA0E32
:10191000DBCFEFFF400E48D8E850EF16880E44D8D2
:10192000E850EF12FD0EDB5002E030D801D063D852
:10193000EA22EF74DECF0BF0DDCF0CF00BC0F3FF2B
:101940000CC0F4FF020EE15C02E2E16AE552E16ED6
:1019500034D0E4D864A812D0E6D8400EEE16EE6A71
:10196000EE6AEE6AE0D8EE7C11D8EA22EF74400EFF
:101970000B6ED9D80B50EF16D6D8EF7C1ED0F1D80D
:10198000EE52080EEF6EEDD885EF0DF0DED86B0E3F
:10199000E926000E12006BC0E9FF6CC0EAFF1200DE
:1019A000E66EE66A9EEF0DF0DECFE9FFDDCFEAFFDF
:1019B0001200B4D8020EE1261200E552E7CFD9FF9B
:1019C0001200CAD8B1EF0DF063C0E9FF64C0EAFFAE
:1019D000120024510F0BE96EEA6AD890E936EA3614
:1019E0001200FD0EDB50E8240D6EFE0EDB50040DE0
:1019F000F3500D241200A9D8670EE926000E12003C
:101A0000000EE66EE66AE66A540EE66E0F0E96EF7C
:101A10000DF0E66E7DC0E9FF7EC0EAFF7D2B000E73
:101A20007E23E552E750EF6EDF06010E120076D8F6
:101A3000E6521200000EE66EE66AE66EE66A1200F4
:101A4000EA22EE50EFCFEAFFE96E1200280EEE6EAA
:101A5000020EED6E1200EA22EECFDEFFEDCFDDFFCB
:101A600012000C220BC0DEFF0CC0DDFF1200DF50A5
:101A70000B6E0C6A080E0B5C000E0C581200EA6A22
:101A8000280FE96E020EEA22EF50E66E1200F722EE
:101A90000900F5CF71F00A00F5CF72F01200FE0ECA
:101AA000DBCFE6FFB4DEE552E5521200010EE66E32
:101AB000E66A000EE66EE66A12002251F66EF76ADA
:101AC000D890F636F7361200D9CFE9FFDACFEAFF21
:101AD000EE50ED101200020E706F5DDFEE52EF6AF5
:101AE0005ADFC80EEF6E4BDFB1DFB1EF0DF0040D22
:101AF000F3CF0BF0F4CF0CF0000E0B26020EB1DF8B
:101B0000840E52DFE850EF121200020EE926000E9A
:101B1000EA22120033D88C0EEF6E1200D9CFE6FF06
:101B2000E1CFD9FF120032DF20EF0DF0E66E8EEC30
:101B300010F00B6E050EE15E0B50120000EC0FF082
:101B40000B6E060EE15E0B501200FE0EEA6ADB34ED
:101B5000FE0BEA36E96E1200200EEE6E020EED6EFE
:101B6000120065C0E9FF66C0EAFF12002DDFCDDF7D
:101B7000ACEF0DF010DFC9DF26EF0DF000DFE1EF75
:021B80000CF067
:0E1B8200DACFE4FFE652F2A409D000019C2B5A
:101B9000000E9D23480ED76EE40ED66EF294E552E9
:101BA000E5CFDAFF1100D8CFE4FFE0CFE4FFE46E29
:101BB000DACFE4FFE652E552E5CFDAFFE550E5CFB4
:101BC000E0FFE5CFD8FF100004D850EC08F024D88F
:101BD000FCD70F0EC11202D816EF08F0F00E8B16CC
:101BE00094168050080B01E0010E0001866F8050B2
:101BF000080B01E0010E876F8C6B8CC08BF08CC0E2
:101C00008AF0010E886F8D6B8E6B970EE66E72EC0C
:101C100010F0E552F28E120096D8200E0001E76E09
:101C20006019E8AE02D0E73402D0E750605D25E3EA
:101C30006450020B01E01200F29A000188510CE09E
:101C40000001030ED8809C55000E9D5505E29C6B4B
:101C50009D6B0001886B0FD0000188510CE10001E1
:101C60003C0ED8809C55000E9D5505E29C6B9D6BEB
:101C70000001010E886FF28A01D812000001880568
:101C800014E189510E0816E28A6B070E00019B15BC
:101C900002D9F5CF8BF0020E9B25070BFCD8F5CFB0
:101CA0008CF09B2B0001896B05D08C6B8CC08BF06A
:101CB0008CC08AF08D518E1102E1000E08D08DC0CB
:101CC000E9FF8EC0EAFFEF50800B01E0010E000932
:101CD0001BE18AC033F28BC034F28CC035F2030EA4
:101CE000E66E330EE66E020EE66E010EE66EE66EF0
:101CF00075EC0CF00B6E050EE15E0B50F3CF8DF022
:101D0000F4CF8EF00001892B12008050080B01E007
:101D1000010E0001865D07E08050080B01E0010E16
:101D2000866F80A6010C000C8050080B01E0010EAC
:101D30000001875D07E08050080B01E0010E876F0E
:101D400080A6010C000C00019E519F1104E1100EB1
:101D50009E6F270E9F6F9E07000E9F5B64A207D0A9
:101D60009E519F112EE18B708BB013D027D00001B4
:101D7000605102E18B9022D0600502E18B8009D096
:101D8000020E605D02E18B8019D0040E605D03E1FC
:101D90008B908B821200100E605D06E100019E5157
:101DA0009F110FE18B700AD0200E605D0AE10001E7
:101DB0009E519F1106E18B708BA002D08B92120076
:101DC0008B8212001200120012001200BCEF0FF002
:101DD00012001A0EE66E010EE66E43EC0CF0E552B0
:101DE000E552120064840001080E8F6F070E906F99
:101DF0008F07000E905B8F519011FAE164941200EE
:101E0000D9CFE6FFE1CFD9FFFD0EDBCF06F0FE0E06
:101E1000DBCF07F0720E061801E1075033E0E868E7
:101E2000061802E1E86807182BE0740E061801E1B5
:101E3000075024E0750E061801E107501DE0730EEF
:101E4000061801E1075016E0030E061801E10750DD
:101E50000FE0020E061801E1075008E0010E061817
:101E600001E1075001E010D0B4DF0FD0B1DF0DD099
:101E7000ADDF0BD0A9DF09D0A5DF07D0A4DF05D0E7
:101E8000A4DF03D0000001D000D0010E00D0E55245
:101E9000E7CFD9FF1200F76A0E0FF66E100EF72289
:041EA0000800120024
:0C1EA4001201000200000008D804000039
:101EB00003000102000109022200010100C03209F1
:101EC0000400000103010200092111010001223276
:101ED00000070581030300010403090434034D00D6
:101EE0006900630072006F006300680069007000A1
:101EF000200054006500630068006E006F006C00F5
:101F00006F0067007900200049006E0063002E001A
:101F10002E034D006F00750073006500200049001E
:101F20006E00200061002000430069007200630021
:101F30006C0065002000440065006D006F00050125
:101F40000902A1010901A1000509190129031500D0
:101F50002501950375018102950175058101050132
:101F6000093009311581257F750895028106C0C0A9
:081F7000B61ED81EDC1E101F76
:081F7800020120511F0B0108BA
:101F800001E01200245101E01200060E215D21E162
:101F90002351230A1BE0010A0CE0030A1AE10001A5
:101FA000610517E10001C80E716F1E0E726F090EF8
:101FB00009D0000161050DE100013E0E716F1F0E99
:101FC000726F320E746F756BC00E02D00001800EFE
:101FD000736F02012051600BE842E842E842E84298
:101FE000E842010801E0120021510B0A26E0080A2C
:101FF00019E0090A11E0080A05E00B0A23E0080AC3
:1020000021E012000001A00E716F000E726F010E30
:10201000746F756BC10E0FD00001800E736F23C2F9
:10202000A0F012000001A10E716F000E726F010E80
:10203000746F756B810E736F12000001800E736FE9
:0620400022C2A1F0120013
:0A2046001E0EF66E100EF76E000E6F
:10205000F86E00010900F550966F0900F550976F72
:1020600003E1966701D03DD00900F550916F09005A
:10207000F550926F0900F550936F09000900F55073
:10208000E96E0900F550EA6E090009000900F550F3
:10209000946F0900F550956F09000900F6CF98F08C
:1020A000F7CF99F0F8CF9AF091C0F6FF92C0F7FF02
:1020B00093C0F8FF0001945302E1955307E0090033
:1020C000F550EE6E9407F8E29507F9D798C0F6FF41
:1020D00099C0F7FF9AC0F8FF00019607000E975BC2
:0420E000BFD7120054
:0C20E400D9CFE6FFDACFE6FFE1CFD9FF4D
:1020F000E2CFDAFFFD0EDB507F0BD56ED76AD66AD2
:10210000F294FD0EDBAE02D0F28A01D0F29AD58EA7
:0C211000E552E5CFDAFFE7CFD9FF12005F
:04211C00FE0EE3CF01
:10212000E9FFFF0EE3CFEAFFE9CFF3FFEACFF4FFC9
:10213000FB0EE35003E1FC0EE35009E0FB0EE30667
:1021400002E2FC0EE306FD0EE350EE6EF1D7120044
:10215000000EF36E00EE00F0030E01D81200EA60EC
:1021600002D0EE6AFCD7F350E9601200EE6AFCD7A9
:1021700011EE00F021EE00F0F86A0A9C23EC10F05A
:0C21800003EC08F0E4EC0DF0FBD71200BB
:04218C00000000004F
:01219000004E
:020000040030CA
:0100000000FF
:0100010032CC
:0100020001FC
:010003001EDE
:0100050000FA
:0100060001F8
:0100080003F4
:01000900C036
:01000A0003F2
:01000B00E014
:01000C0003F0
:01000D0040B2
:00000001FF
