:020000040000FA
:10000000CBEF07F01200FFFF04EF08F01200FFFF34
:10001000FFFFFFFFFFFFFFFF0CEF08F01200FFFFE5
:1000200000000201A36BA769A869A969A66B010E6C
:10003000AA6F1200D9CFE6FFE1CFD9FFE652020145
:10004000A3511FE1020108BF1BD0400EE66E700EE7
:10005000E66E010EE66E00EC06F0E552E552E55262
:100060000201010EA36FDF6A400EDF5C09E2DF5080
:10007000EA6AB00FE96E010EEA22EF6ADF2AF4D7CE
:1000800096D101017051080A01E180D10F0A01E106
:1000900023D1010A01E118D1030A01E1B4D0010A18
:1000A0006AE0070A5DE0010A01E081D10101020E68
:1000B000B06F01013A0EB16F0101010EB26F010183
:1000C000010EB36F0101B46B100EB56FB66BB76B59
:1000D0000101B86B300EB96FBA6BBB6B0101030E37
:1000E000BC6F0101BD6BBE6B300EBF6FC06B0101F9
:1000F0000E0EC16FC26BC36BC46B0101010EC56FE5
:100100000101C66BC76B200EC86FC96B0101080ED9
:10011000CA6FCB6BCC6BCD6B0101CE690101020EB6
:10012000CE6F0101CF6BD06BF00ED16FD26B01019E
:10013000D36B010ED46FD56BD66B0101D769020169
:100140000CBF0DD0400EE66EB00EE66E010EE66EF0
:10015000D0EC05F0E552E552E5520201A36B27D140
:100160000201010EAA6F0101715102E10201AA6BA5
:100170000201A36B1CD1400E0201A46FA56B02010A
:10018000000EA45D010EA5591FE20400A4C200F0F8
:10019000A5C201F0026A060E1F0B00C0F6FF01C0E7
:1001A000F7FF02C0F8FF06E0D890F636F736F836CB
:1001B000E806FAE1940EA66E9DD95AEC06F002010B
:1001C000A42B000EA523DBD7DF6ADF50A96EA86839
:1001D000040EA66E5AEC06F08DD9DF50DF2A006EB1
:1001E000016A026AFF0E005C000E0158000E025800
:1001F000ECE3F66AF76A200EF86E940EA66E7AD9D2
:100200000201A36BD4D0300E0101735D07E102013E
:10021000AA5101E132D90201A36BC9D0F00E01014C
:10022000735D04E14DD90201A36BC1D0E8680201FE
:10023000A71905E1E868A81902E1E868A91906E12B
:1002400071C1A7F272C1A8F273C1A9F2A70EE96E3B
:10025000020EEA6EEE500101711908E1EE50010143
:10026000721904E1EE500101731900E12AE1DF6A1D
:1002700001017551DF5C25E23A0E0101D880755508
:10028000DF24EA6A760FE96E010EEA22EF50E66E8D
:100290000201A651EA6AAB0FE96E020EEA22E552AC
:1002A000E750EF6E0201A62B0201A72B000EA82338
:1002B000000EA923100E0201A65D01E17DD8DF2A00
:1002C000D7D70201A36B73D077D80201A769A869B9
:1002D000A9690201A36B6BD00101070EB06F71C158
:1002E000B1F172C1B2F173C1B3F174C1B4F175C1AE
:1002F000B5F171C1F6FF72C1F7FF73C1F8FFDF6A94
:1003000001017551DF5C31E2F00E0101735D13E113
:10031000DF5001017125A96EA66AA6803A0E01017F
:10032000D8807555DF24EA6AB60FE96E010EEA221D
:10033000A8CFEFFF18D00900300EF85C08E1050ED9
:10034000F65C01E1F568080EF65C01E1F5683A0E2D
:100350000101D8807555DF24EA6AB60FE96E010EF7
:10036000EA22F5CFEFFFDF2ACBD702010CBF0DD079
:10037000400EE66EB00EE66E010EE66ED0EC05F0B5
:10038000E552E552E5520201A36B11D06492646A12
:10039000DF6AFF0EDF5C09E2E868E85004E0E80687
:1003A00000D000D0FAD7DF2AF4D7FF0000D0E55202
:1003B000E552E7CFD9FF12000101F16BA6C200F0B0
:1003C000016A026A00500201A75DF66E0150020147
:1003D000A859F76E02500201A959F86E0F0EF614D3
:1003E0000101F26FF00EF6160101F06B100E010123
:1003F000F05D1FE20101F25115E10201A6510FE08B
:100400000101F151EA6AAB0FE96E020EEA22EF50E8
:10041000F56E0D000101F12B0201A60702D0F5686F
:100420000D0004D0F5680D000101F2070101F02B69
:10043000DDD70A00A40EA66E5DD80101F06B0201A3
:10044000A6510101F05D18E20101F1510101F02511
:10045000EA6AAB0FE96E020EEA22EF50E66E010186
:10046000F051EA6AAB0FE96E020EEA22E552E7505C
:10047000EF6E0101F02BE3D7120071C1F6FF72C1DC
:10048000F7FF73C1F8FF0101F36B01017551010121
:10049000F35D15E23A0E0101D88075550101F3258F
:1004A000EA6A760FE96E010EEA22EF50F56E0C0053
:1004B000C40EA66E1FD809000101F32BE6D7120067
:1004C0000101F46B7551F45D14E27151F425A96ECC
:1004D0003A0ED8807555F425EA6A760FE96E010E5A
:1004E000EA22EF50A86E040EA66E04D80101F42B88
:1004F000E9D71200F29E550EA76EAA0EA76EA6822D
:10050000A6B2FED7A69412007DD9E652635032E11E
:100510006296020100513C0BE842E8420D0828E1D6
:10052000180E021923E1020E031920E1100E026FCA
:10053000020E036FDF6ADF50006E016A080E005C76
:10054000000E015813E2DF50EA6A180FE96E020E3E
:10055000EA22EF50E66EDF50EA6A100FE96E020EF3
:10056000EA22E552E750EF6EDF2AE5D70ED80AD02F
:100570003FD808D0040E635C03E1629650D802D0E5
:10058000000E01D0010EE55242D13CD9E6520201E3
:1005900004BF046B0201F36BEB6BEC6BF16BF26B62
:1005A00013EC04F0DF6ADF50006E016A010E005C9C
:1005B000000E01581AE20201EC5117E1F76ADF342C
:1005C000FE0BF736F66E8E0EF6260E0EF72209009B
:1005D000F5CF00F00800F5CF01F004D001C0FAFF1C
:1005E0000050F96EFBDFDF2ADED7B7D8E5520FD116
:1005F000020E0201EB5D0EE184D80201180E026FBB
:10060000020E036F080E016F00BD02D0C80E05D0A8
:10061000880E03D0DBD8E7D88C0E006F1200040ED2
:100620000201F45D0CE112C25CFF0F015C51000895
:1006300003E20201050E02D00201030EF46F020173
:10064000EB0510E111D8020E0201F35D03E1020196
:10065000840E06D0020104BD02D0C80E01D0880E5F
:10066000046F1200E6EF03F0CDD8020EE12602017E
:10067000080EF15D000EF2590DE2F1C2DEFFF2C28A
:10068000DDFFF35102E1010E03D0F30506E1020E96
:10069000F36F03D0080EDE6EDD6A0201049304914D
:1006A000010EDB500413DFCF05F2000EDB50020118
:1006B000F15F010EDB50F25B180EEF6F020EF06F70
:1006C0000201F5A30CD097D815E0EDC2F6FFEEC2FB
:1006D000F7FF0800F5507FD8F6E2DB06F4D78BD899
:1006E00009E0EDC2E9FFEEC2EAFFEF5074D8F7E28D
:1006F000DB06F5D7020EE15C02E2E16AE552E16E4B
:1007000086D080D8020EE126030E02010015E76EA6
:10071000010EE7CFDBFF01C2DFFFDE500201F12750
:10072000DD50F223180EED6F020EEE6F64D80EE06E
:10073000EDC2E9FFEEC2EAFFEF50EFC2E9FFF0C2FF
:10074000EAFFEF6E68D8F2E2DB06F0D7020EE15C5A
:1007500002E2E16AE552E16E5AD064980201EC517E
:1007600005E141D8840E006F02011DD0020110AFD7
:100770001CD00201F1510201165D0201F251020189
:10078000175904E216C2F1F217C2F2F26DDF02014C
:10079000010EEB6F28D8800E006F0201180E066F55
:1007A000020E076FC80E046F12000201020EEB6FFB
:1007B0000201056BC80E046F0201080E016F180ECE
:1007C000026F020E036FC80E006F12000201EB6B86
:1007D0000201046B1200EFC2E9FFF0C2EAFFEF6E04
:1007E00002010BEF04F00201080E016F100E026F00
:1007F000020E036F1200D9CFE9FFDACFEAFFEE5005
:10080000ED101200D9CFE6FFE1CFD9FF1200E5527B
:10081000E7CFD9FF1200EF2B000EF023ED2BEE23D4
:10082000DF06010E120002011051600BE842E8429F
:10083000E842E842E842000901E012001151070ACB
:1008400040E00B0A3EE0070A33E0010A23E00B0A0E
:100850001FE0020A1DE0030A19E0080A10E0010A7D
:100860000CE00F0A08E0030A01E0120012D90201AD
:10087000040EF46F120062EF04F099EF04F009D94E
:100880000201F60EED6F020EEE6F0CD0B4EF04F025
:10089000E6EF04F002D90201ED6FEE6BF70EED27E3
:1008A000020EEE230201F5930201010EF16F120018
:1008B000F4D8EA6AF70FE96E020EEA2212C2EFFFDD
:1008C00012001200800E0201105D32E11351030A82
:1008D0001FE0010A0AE0030A29E1DBD80201CE0E7B
:1008E000ED6F0D0EEE6F120E1ED0B2D8840EF626EE
:1008F0000E0EC0D8020E0201F76AED25F66EEE511B
:10090000F7220900F5CFF1F20A00F5CFF2F20ED08E
:100910009FD8880EF6260E0EADD8EDC2F6FFEEC2B9
:10092000F7FF0800F5500201F16FF26B0201F58349
:100930001200AFD8070EE66E540EE66E0F0EA2D868
:10094000010EE66EF70EE66E020E9CD812C2F6F2AB
:100950000201125104E10201050EF46F12000201BE
:10096000060EF46FBAEF05F00201186B196B020165
:1009700010511F0B020A0FE0030A0BE0010A18E1F5
:1009800088D8020118810201F5A112D00201188352
:100990000FD07FD80DD050D801E0010E62D8EFC241
:1009A000E9FFEA6EEF50040B03E00201010E186F3D
:1009B0000201EC050AE10201180EED6F020EEE6F66
:1009C0000201F5930201020EF16F120002011205FD
:1009D0000EE110511F0B00090AE15BD8030E020162
:1009E000115D03E10201F58102D00201F5910201DE
:1009F000125121E110511F0B02081DE114510F0B80
:100A0000000919E019D801E0010E2BD8030E0201EC
:100A1000115D02E1840E03D014AF07D0400EEFC287
:100A2000E9FFF0C2EAFFEF6E1200880EEFC2E9FFA5
:100A3000F0C2EAFFEF6E120030D80F0B080DF35032
:100A4000016A000F006E020E01221451800B120089
:100A500020D802011251F66EF76AD890F636F736B2
:100A60001200040DF35002010024EF6F000E01206C
:100A7000F06F1200F7220900F5CFEDF20A00F5CF72
:100A8000EEF21200E66ED2EC06F0E552E552E552C7
:100A900012000201010EEC6F1200FBDF0201145183
:100AA0001200020110511F0B010801E01200145145
:100AB00001E01200060E115D24E11351230A1FE02C
:100AC000010A0DE0030A1BE1DCD80201F60505E18D
:100AD0000201F20EED6F0D0EEE6F090E0DD0D1D8A2
:100AE0000201F60505E10201670EED6F0E0EEE6FD5
:100AF0000201F60504E11D0E0201F16FF26B020125
:100B0000F58302011051600BE842E842E842E842F6
:100B1000E842010801E0120011510B0A25E0080A21
:100B200017E0090A11E0080A09E00B0A05E0080AC3
:100B300001E01200B8EF05F0B9EF05F0A2D802010C
:100B4000F80EED6F020E09D09CD813C2F8F2120015
:100B500098D80201F90EED6F020EEE6F0201F593C7
:100B60000201010EF16F12008CD812C2F9F21200CC
:100B7000120012000201FA6B0F011E0E546F0201E7
:100B8000400E096F200E0A6F020E0B6F880E086F61
:100B90000201600E0E6F020E0F6F400E0C6F1200FE
:100BA000D9CFE6FFE1CFD9FFE652FC0EDB5040087B
:100BB00005E2400EF36EFC0EF3CFDBFFDF6AFC0EA6
:100BC000DB50DF5C0FE2DF5050D8EF50E66EDF50B5
:100BD000EA6A600FE96E020EEA22E552E750EF6E14
:100BE000DF2AEDD7FC0EDBCF0DF2400E02010C1711
:100BF0000C7D880E0C13E552E552E7CFD9FF1200A9
:100C0000D9CFE6FFE1CFD9FF0201FA6B020108BF9D
:100C100026D0FC0EDBCF00F00951D880005403E24F
:100C2000FC0E09C2DBFF0201FA6BFC0EDB50FA5D21
:100C30000FE2FA51EA6A200FE96E020EEA22EF5043
:100C4000E66EFA5112D8E552E750EF6EFA2BEDD767
:100C50000201400E096F0817087D880E0813020173
:100C6000FA51E552E7CFD9FF1200E76EFD0EDBCF58
:100C7000E9FFFE0EDBCFEAFFE750E926000EEA228D
:100C800012000201020EEC6F120064A60CD80201E1
:100C9000F40508E164BA06D0626A606A6080608820
:100CA000020EF46F1200646A606A64860201010E2B
:100CB000F46F12000201F45101E1120062B425D870
:100CC00064B2120062B03AD862B817D862BA24D8B7
:100CD000030E0201F45D01E212000101FF6B040E3C
:100CE000FF5D0AE262A608D084EC02F0000901E18F
:100CF00062960101FF2BF3D7120060846298648230
:100D0000A194A0840300A09412006492609462A451
:100D100002D06294FCD712000F0153A10DD0800EB7
:100D20000201005D07E1840E0201045D03E102019E
:100D30008C0E006F0F015391629A12000F015F6BCE
:100D4000626A0F019F0E5B6F7B0E606E0F015C6B22
:100D5000070EE66E540EE66E0F0EE66E23D8E552D1
:100D6000E552E5520F01160E536F62A605D062964A
:100D700000D000D00000F9D76498E6EC03F002013F
:100D8000080E016F0201100E026F020E036F0201C6
:100D90008C0E006F0201F5910201F66B0201030E49
:100DA000F46F1200D9CFE6FFE1CFD9FFFD0EDBCF04
:100DB000E9FFFE0EDBCFEAFFFC0EDB5004E0EE6A3B
:100DC000FC0EDB06F9D7E552E7CFD9FF120012017E
:100DD000000200000008D8043C00020001020001EB
:100DE00009022900010100C03209040000020300C9
:100DF0000000092111010001221D000705810340A7
:100E00000001070501034000010403090434034DF8
:100E1000006900630072006F006300680069007081
:100E200000200054006500630068006E006F006CD5
:100E3000006F0067007900200049006E0063002EFB
:100E40000026035500730062005400680075006DB1
:100E500000620042006F006F0074006C006F006160
:100E6000006400650072000600FF0901A10119017C
:100E70002940150026FF00750895408100190129B9
:100E8000409100C0E00DE00D090E0D0E410EA20ACA
:100E9000200EF66E000EF76E000EF86E01010900CE
:100EA000F550FA6F0900F550FB6F03E1FA6701D0C6
:100EB0003DD00900F550F56F0900F550F66F0900B7
:100EC000F550F76F09000900F550E96E0900F5507B
:100ED000EA6E090009000900F550F86F0900F550A5
:100EE000F96F09000900F6CFFCF1F7CFFDF1F8CF5B
:100EF000FEF1F5C1F6FFF6C1F7FFF7C1F8FF0101FA
:100F0000F85302E1F95307E00900F550EE6EF807D7
:100F1000F8E2F907F9D7FCC1F6FFFDC1F7FFFEC102
:100F2000F8FF0101FA07000EFB5BBFD712000F0E9E
:100F3000C16E80A604D0070EC16E00EF08F00DD878
:100F4000040015D8060E0201F45D05E16450020BA1
:100F500002E11AEC00F0F4D71200140E616E0201E7
:100F6000F46B0201F56B0201F66B11EF00F045EC3A
:100F700006F05AEF06F0000EF36E00EE00F0030EDE
:100F800001D81200EA6002D0EE6AFCD7F350E960A3
:100F90001200EE6AFCD711EE00F021EE00F0F86AC4
:100FA000049C48EC07F0D9EC07F097EC07F0FBD76E
:100FB00012001200FFFFFFFFFFFFFFFFFFFFFFFF19
:100FC000FFFFFFFFFFFFFFFFFFFFFFFFFFFFFFFF31
:100FD000FFFFFFFFFFFFFFFFFFFFFFFFFFFFFFFF21
:100FE000FFFFFFFFFFFFFFFFFFFFFFFFFFFFFFFF11
:100FF000FFFFFFFFFFFFFFFFFFFFFFFFFFFFFFFF01
:10100000B8EF10F012001200C1EF0DF01200FCFC5E
:10101000FC0004040400FFFFD3EF0DF012000100F8
:101020008C2100009B0000000500000017EC0DF073
:101030000F015F6B626A160E616E9F0E5B6F7B0E17
:10104000606E648C5C6B00EC0DF0649CDF6A37ECC6
:101050000DF010E2DF50040DF3CFE9FFF4CFEAFF0B
:10106000000EE926020EEA22EE6AEE6AEE6AEE6AE7
:10107000DF2AEDD70F01160E536F62A602D06296DB
:10108000FCD70001736B786B796B7A6B6498080EF0
:101090006B6F020E6C6F616B606BE552DDEF0CF0F5
:1010A00017EC0DF00001605110E1646A606A160EE1
:1010B000616E0F019F0E5B6F7B0E606E64B602D097
:1010C0006486FCD70001010E606F600508E164BA18
:1010D00006D0626A606A60806088020E606F62504B
:1010E000040B05E06050040B02E0629489D864B2FE
:1010F00049D06250010B12E06050010B0FE096DF07
:101100000001040E606F0201200E026F020E036FD9
:10111000080E016F006B8C0E001362906250100B72
:1011200005E06050100B02E063D862986250400BFB
:1011300009E06050400B06E056EC0DF0730ED0EC69
:101140000CF0629C6250200B04E06050200B01E028
:101150003CD86250020B0BE06050020B08E056ECEA
:101160000DF0E668E6689EEC0DF00F015F6B040E73
:101170000001E76E6019E8AE02D0E73402D0E75014
:10118000605D02E2A1941ED060A61BD0DF6A040E4F
:10119000DF5C17E262A615D063CF80F06296780E0E
:1011A0000001801502E137D80AD0000EE66EE66A2B
:1011B000800EE66E000EE66E720ED0EC0CF0DF2AAA
:1011C000E6D7A194E552DDEF0CF00F0153A10ED04C
:1011D000E4EC0CF0EF50800808E1DDDBEF50840810
:1011E00004E1E4EC0CF08C0EEF6E5391629A120065
:1011F0006084629864821AEC0DF0750ED0EF0CF0EA
:101200001AEC0DF0740ECCDB6492609462A402D0F0
:101210006294FCD7120017EC0DF0FD0E0001801552
:101220003EE17E0E8015E8407F0B040DF3CF63F0A6
:10123000F4CF64F0000E6327020E642363C065F0F0
:1012400064C066F06575C0DBEF503C0BE842E842D5
:101250000D0823E1B9DB85EC0DF0EECF0BF0EFCFFD
:101260000CF0280E0B1817E1020E0C1814E1B6EC66
:101270000DF0DF6A37EC0DF00EE2DF503FEC0DF0C1
:10128000DF50EA6A200FE96E020EEA22E552E750CB
:10129000EF6EDF2AEFD70AD807D01AD805D0FD0E97
:1012A0008015040801E122D8E55287D374DBEF50A2
:1012B000800B02E070DBEF6A00016F6B706B746B88
:1012C000756B736B67D8B6DB030E6ADBFFEF0AF052
:1012D000020E0001705D02E18CEF0BF037D80001C7
:1012E000815102E18AEF0DF0816B1200A0DB53DB2C
:1012F000EF50400B01E0010EDF6E00016B75080E30
:10130000605D0CE122C25CFF0F015C51000803E24A
:101310000001100E02D00001040E606F700513E191
:10132000BAEC0DF0A6D9020E00016F5D03E133DBCC
:10133000840E07D0DF5003E12EDBC80E02D02BDB7A
:10134000880EEF6E01D002D8E55237D332DB0001B0
:10135000706B21DBEF6A040E6B190B6E6CC00CF026
:10136000DE6E6CC0DDFF20DBEF6A78AF0CD07B5106
:101370007C1107E005D07CC0FAFF00017B51F96EBB
:10138000FADF0001789F020EE15C02E2E16AE552B9
:10139000E16E13D302012051600BE842E842E842BB
:1013A000E842E842000901E0120021510C0A45E040
:1013B0000B0A3FE00C0A31E0010A22E00B0A1EE0B2
:1013C000020A1CE0030A18E0080A10E0010A0CE017
:1013D0000F0A08E0030A01E012000001738F080EF3
:1013E000606F12007FEF0AF0E8EF0BF00001610E72
:1013F000716F000E726F0CD0C0EF0AF01EEF0AF092
:1014000024510001716F726B620E7127000E7223FE
:101410007381010E746F738F12000001738F0201CC
:101420002451EA6A620FE96E000EEA2222C2EFFF3F
:10143000120000DB020ED0EF0CF012006FDB040E86
:10144000E1260201220510E120511F0B00090CE1E9
:101450000001738F030E0201215D04E10001010E02
:101460007F6F02D000017F6B0201225141E12051C8
:101470001F0B02083DE124510F0B000939E0000168
:10148000738F020124BF05D0A4DA670EE926000E8F
:1014900004D09FDA6B0EE926000EDDDA030E215D23
:1014A00003E182DA840E23D024510F0B0C6A530F10
:1014B0000B6E0F0E0C22020E0BC0DBFF030E0CC0D6
:1014C000DBFF020EDBCFE9FF030EDBCFEAFFEE907E
:1014D000ED5224AF06D068DAEF6ADF7465DA400EA9
:1014E00006D062DA880EEF6EDF745EDAC80EEF6E39
:1014F000040EE15C02E2E16AE552E16E5ED2800E2A
:101500000201205D3CE10001C00E736F0201235116
:10151000030A1EE0010A09E0030A2FE10001A40EFC
:10152000716F1E0E726F120E22D0C7DA700EF62681
:101530001F0EADDA020E0001F76A7125F66E7251C8
:10154000F7220900F5CF74F00A00F5CF75F012000C
:10155000030E225D0FE2B1DA720EF6261F0E97DA45
:1015600071C0F6FF72C0F7FF0800F5500001746FFC
:10157000756B12000001736B12000001736B120097
:1015800018DA0201286B296B20511F0B020A11E0A7
:10159000030A0CE0010A22E10001738F0201288195
:1015A00000017F051BE10201288318D00001738F21
:1015B00015D00001738F020124BF05D00ADA670E2F
:1015C000E926000E04D005DA6B0EE926000E43DA98
:1015D000EBD9EF50040B02E0010E286F000173AF4E
:1015E00007D0280E716F020E726F7381020E746F36
:1015F000020EE15C02E2E16AE552E16EDED164983E
:10160000000173BF08D078AF02D065DA2AD082DA41
:10161000C2D9840E27D078BF2BD0020120AF24D0AE
:10162000000174510201265D000175510201275924
:1016300004E226C274F027C275F01BD80001010E27
:10164000706F9CDA800EEF6E816BBED9EE52080E81
:10165000EF6E8CDAB9D9840EEF6E010E816F8ADAE3
:101660009AD9C80EEF6E1200000135DAC80EEF6E7F
:1016700012009FD90001080E745D000E75590DE22D
:1016800074C0DEFF75C0DDFF6F5102E1010E03D0B3
:101690006F0506E1020E6F6F03D0080EDE6EDD6A85
:1016A0007AD9EF9278D9EF9076D9010EDB50EF120C
:1016B00072D9EE52DFCFEFFF000EDB50745F010EE8
:1016C000DB50755B280E7D6F020E7E6F73B10FD0FD
:1016D000FBD91BE071C0F6FF72C0F7FF712B000E43
:1016E00072230800F55095D9F3E2DB06F1D7ECD967
:1016F0000CE071C0E9FF72C0EAFF712B000E72238B
:10170000EF5087D9F4E2DB06F2D7020EE15C02E289
:10171000E16AE552E16E51D14CD956D9EE52EFCF84
:10172000DFFFDFCF0BF00B500001795D000E7A591F
:1017300003E279C0DFFF09D0DF500B6E0C6AE8507E
:10174000795D796F0C507A597A6F010EDB6ADF5040
:10175000F36E010EDBCFF4FFF350F45C10E2010EE8
:10176000DB508DD976C0E9FF77C0EAFF762B000EFB
:101770007723E552E750EF6E010EDB2AE8D7000E23
:10178000D8807955000E7A550DE2F9D85FD91CD969
:10179000EF50400B03E1E5D9C80E02D0E2D9880E24
:1017A000EF6E0FD0EBD9840EEF6E7B517C1107E00A
:1017B00005D07CC0FAFF00017B51F96EFADF000111
:1017C000789F020EE15C02E2E16AE552E16EF5D03B
:1017D0000001738F15D9010EE66EE66AE66A620EA5
:1017E000E66E000EA3D922C261F00001615103E14F
:1017F000100E606F1200200E606F010EE66EE66A3A
:10180000610EE66E000EE66E010ED0EF0CF0D1D840
:10181000000EDE6E020EDD6EE4D8040DF3500B6E8A
:101820000C6A020E0F0B05E0D8900C320B32E80662
:10183000FBE1D8900B360C36D8900B360C36D9CF4E
:10184000E9FFDACFEAFF0B50EE260C50ED22ACD8C0
:10185000EF9EFD0EDB5002E1CED801D097D8EA22F0
:10186000DECFEEFFDDCFEDFF9FD8EF9C9DD8040EBD
:10187000E926000EEA22EF8C020EE15C02E2E16A48
:10188000E552E16E9AD095D8FE0EDB500C6A530FEC
:101890000B6E0F0EE6D888D8FD0EDBCFEFFFDBA472
:1018A00002D0E66AFCD8FD0EDBA203D0010EE66E84
:1018B000F6D8020EE15C02E2E16AE552E16E7DD00B
:1018C00078D8FE0EDB5005E125D965D8840EEF6E81
:1018D00005D087D80CD985D8010F09D9020EE15C53
:1018E00002E2E16AE552E16E68D063D8FD0EDB509A
:1018F00002E04CD801D07FD8AED856D806D9FB0E1E
:10190000DBCFEEFFFC0EDBCFEDFF4ED8EE52FA0E32
:10191000DBCFEFFF400E48D8E850EF16880E44D8D2
:10192000E850EF12FD0EDB5002E030D801D063D852
:10193000EA22EF74DECF0BF0DDCF0CF00BC0F3FF2B
:101940000CC0F4FF020EE15C02E2E16AE552E16ED6
:1019500034D0E4D864A812D0E6D8400EEE16EE6A71
:10196000EE6AEE6AE0D8EE7C11D8EA22EF74400EFF
:101970000B6ED9D80B50EF16D6D8EF7C1ED0F1D80D
:10198000EE52080EEF6EEDD885EF0DF0DED86B0E3F
:10199000E926000E12006BC0E9FF6CC0EAFF1200DE
:1019A000E66EE66A9EEF0DF0DECFE9FFDDCFEAFFDF
:1019B0001200B4D8020EE1261200E552E7CFD9FF9B
:1019C0001200CAD8B1EF0DF063C0E9FF64C0EAFFAE
:1019D000120024510F0BE96EEA6AD890E936EA3614
:1019E0001200FD0EDB50E8240D6EFE0EDB50040DE0
:1019F000F3500D241200A9D8670EE926000E12003C
:101A0000000EE66EE66AE66A540EE66E0F0E96EF7C
:101A10000DF0E66E7DC0E9FF7EC0EAFF7D2B000E73
:101A20007E23E552E750EF6EDF06010E120076D8F6
:101A3000E6521200000EE66EE66AE66EE66A1200F4
:101A4000EA22EE50EFCFEAFFE96E1200280EEE6EAA
:101A5000020EED6E1200EA22EECFDEFFEDCFDDFFCB
:101A600012000C220BC0DEFF0CC0DDFF1200DF50A5
:101A70000B6E0C6A080E0B5C000E0C581200EA6A22
:101A8000280FE96E020EEA22EF50E66E1200F722EE
:101A90000900F5CF71F00A00F5CF72F01200FE0ECA
:101AA000DBCFE6FFB4DEE552E5521200010EE66E32
:101AB000E66A000EE66EE66A12002251F66EF76ADA
:101AC000D890F636F7361200D9CFE9FFDACFEAFF21
:101AD000EE50ED101200020E706F5DDFEE52EF6AF5
:101AE0005ADFC80EEF6E4BDFB1DFB1EF0DF0040D22
:101AF000F3CF0BF0F4CF0CF0000E0B26020EB1DF8B
:101B0000840E52DFE850EF121200020EE926000E9A
:101B1000EA22120033D88C0EEF6E1200D9CFE6FF06
:101B2000E1CFD9FF120032DF20EF0DF0E66E8EEC30
:101B300010F00B6E050EE15E0B50120000EC0FF082
:101B40000B6E060EE15E0B501200FE0EEA6ADB34ED
:101B5000FE0BEA36E96E1200200EEE6E020EED6EFE
:101B6000120065C0E9FF66C0EAFF12002DDFCDDF7D
:101B7000ACEF0DF010DFC9DF26EF0DF000DFE1EF75
:101B80000CF0DACFE4FFE652F2A409D000019C2B5E
:101B9000000E9D23480ED76EE40ED66EF294E552E9
:101BA000E5CFDAFF1100D8CFE4FFE0CFE4FFE46E29
:101BB000DACFE4FFE652E552E5CFDAFFE550E5CFB4
:101BC000E0FFE5CFD8FF100004D850EC08F024D88F
:101BD000FCD70F0EC11202D816EF08F0F00E8B16CC
:101BE00094168050080B01E0010E0001866F8050B2
:101BF000080B01E0010E876F8C6B8CC08BF08CC0E2
:101C00008AF0010E886F8D6B8E6B970EE66E72EC0C
:101C100010F0E552F28E120096D8200E0001E76E09
:101C20006019E8AE02D0E73402D0E750605D25E3EA
:101C30006450020B01E01200F29A000188510CE09E
:101C40000001030ED8809C55000E9D5505E29C6B4B
:101C50009D6B0001886B0FD0000188510CE10001E1
:101C60003C0ED8809C55000E9D5505E29C6B9D6BEB
:101C70000001010E886FF28A01D812000001880568
:101C800014E189510E0816E28A6B070E00019B15BC
:101C900002D9F5CF8BF0020E9B25070BFCD8F5CFB0
:101CA0008CF09B2B0001896B05D08C6B8CC08BF06A
:101CB0008CC08AF08D518E1102E1000E08D08DC0CB
:101CC000E9FF8EC0EAFFEF50800B01E0010E000932
:101CD0001BE18AC033F28BC034F28CC035F2030EA4
:101CE000E66E330EE66E020EE66E010EE66EE66EF0
:101CF00075EC0CF00B6E050EE15E0B50F3CF8DF022
:101D0000F4CF8EF00001892B12008050080B01E007
:101D1000010E0001865D07E08050080B01E0010E16
:101D2000866F80A6010C000C8050080B01E0010EAC
:101D30000001875D07E08050080B01E0010E876F0E
:101D400080A6010C000C00019E519F1104E1100EB1
:101D50009E6F270E9F6F9E07000E9F5B64A207D0A9
:101D60009E519F112EE18B708BB013D027D00001B4
:101D7000605102E18B9022D0600502E18B8009D096
:101D8000020E605D02E18B8019D0040E605D03E1FC
:101D90008B908B821200100E605D06E100019E5157
:101DA0009F110FE18B700AD0200E605D0AE10001E7
:101DB0009E519F1106E18B708BA002D08B92120076
:101DC0008B8212001200120012001200BCEF0FF002
:101DD00012001A0EE66E010EE66E43EC0CF0E552B0
:101DE000E552120064840001080E8F6F070E906F99
:101DF0008F07000E905B8F519011FAE164941200EE
:101E0000D9CFE6FFE1CFD9FFFD0EDBCF06F0FE0E06
:101E1000DBCF07F0720E061801E1075033E0E868E7
:101E2000061802E1E86807182BE0740E061801E1B5
:101E3000075024E0750E061801E107501DE0730EEF
:101E4000061801E1075016E0030E061801E10750DD
:101E50000FE0020E061801E1075008E0010E061817
:101E600001E1075001E010D0B4DF0FD0B1DF0DD099
:101E7000ADDF0BD0A9DF09D0A5DF07D0A4DF05D0E7
:101E8000A4DF03D0000001D000D0010E00D0E55245
:101E9000E7CFD9FF1200F76A0E0FF66E100EF72289
:101EA000080012001201000200000008D80400001F
:101EB00003000102000109022200010100C03209F1
:101EC0000400000103010200092111010001223276
:101ED00000070581030300010403090434034D00D6
:101EE0006900630072006F006300680069007000A1
:101EF000200054006500630068006E006F006C00F5
:101F00006F0067007900200049006E0063002E001A
:101F10002E034D006F00750073006500200049001E
:101F20006E00200061002000430069007200630021
:101F30006C0065002000440065006D006F00050125
:101F40000902A1010901A1000509190129031500D0
:101F50002501950375018102950175058101050132
:101F6000093009311581257F750895028106C0C0A9
:101F7000B61ED81EDC1E101F020120511F0B0108C7
:101F800001E01200245101E01200060E215D21E162
:101F90002351230A1BE0010A0CE0030A1AE10001A5
:101FA000610517E10001C80E716F1E0E726F090EF8
:101FB00009D0000161050DE100013E0E716F1F0E99
:101FC000726F320E746F756BC00E02D00001800EFE
:101FD000736F02012051600BE842E842E842E84298
:101FE000E842010801E0120021510B0A26E0080A2C
:101FF00019E0090A11E0080A05E00B0A23E0080AC3
:1020000021E012000001A00E716F000E726F010E30
:10201000746F756BC10E0FD00001800E736F23C2F9
:10202000A0F012000001A10E716F000E726F010E80
:10203000746F756B810E736F12000001800E736FE9
:1020400022C2A1F012001E0EF66E100EF76E000EE8
:10205000F86E00010900F550966F0900F550976F72
:1020600003E1966701D03DD00900F550916F09005A
:10207000F550926F0900F550936F09000900F55073
:10208000E96E0900F550EA6E090009000900F550F3
:10209000946F0900F550956F09000900F6CF98F08C
:1020A000F7CF99F0F8CF9AF091C0F6FF92C0F7FF02
:1020B00093C0F8FF0001945302E1955307E0090033
:1020C000F550EE6E9407F8E29507F9D798C0F6FF41
:1020D00099C0F7FF9AC0F8FF00019607000E975BC2
:1020E000BFD71200D9CFE6FFDACFE6FFE1CFD9FFA5
:1020F000E2CFDAFFFD0EDB507F0BD56ED76AD66AD2
:10210000F294FD0EDBAE02D0F28A01D0F29AD58EA7
:10211000E552E5CFDAFFE7CFD9FF1200FE0EE3CF9D
:10212000E9FFFF0EE3CFEAFFE9CFF3FFEACFF4FFC9
:10213000FB0EE35003E1FC0EE35009E0FB0EE30667
:1021400002E2FC0EE306FD0EE350EE6EF1D7120044
:10215000000EF36E00EE00F0030E01D81200EA60EC
:1021600002D0EE6AFCD7F350E9601200EE6AFCD7A9
:1021700011EE00F021EE00F0F86A0A9C23EC10F05A
:1021800003EC08F0E4EC0DF0FBD7120000000000B7
:1021900000FFFFFFFFFFFFFFFFFFFFFFFFFFFFFF4E
:1021A000FFFFFFFFFFFFFFFFFFFFFFFFFFFFFFFF3F
:1021B000FFFFFFFFFFFFFFFFFFFFFFFFFFFFFFFF2F
:1021C000FFFFFFFFFFFFFFFFFFFFFFFFFFFFFFFF1F
:1021D000FFFFFFFFFFFFFFFFFFFFFFFFFFFFFFFF0F
:0200000400F00A
:020000040030CA
:0E0000000032211E0000010003C003E0034097
:020000040020DA
:08000000FFFFFFFFFFFFFFFF00
:00000001FF
